:020000040000fa
:080000000002040000000000f2
:020000040000fa
:100400004fa52000807f240000018800000000002c
:10041000050007000c000700b00702000000000004
:100420000040da000000fe004440a9000001200066
:100430000000e0000300320000002000a00188005e
:100440004440a80000000600802c2100010020008c
:100450001600370062004000e080480091018800eb
:100460009001ba0062004000e080480091018800dd
:100470009002ba0062004000e08048000002eb00f9
:100480006028e10005003a008301e900070033001d
:10049000038009000059eb00040037006128e100e7
:1004a000010032000082eb00050007009101880086
:1004b0001001ba000200e000e6ff3a00000005006b
:1004c000910188008002780062004000e0804800ce
:1004d0003559ba008301e900080032002559ba00f5
:1004e0008301e900050032000400e000f4ff32005f
:1004f00015d9ba008301e900f1ff3a0000000600b7
:10050000889fbe008a9fbe008c1f78009200070063
:100510009900330003866c006450e100240032002f
:100520006420e100270032006150e1002200320027
:100530006120e100210032008b854200eb07b10011
:100540000134b800003ab8000804420089844a0027
:10055000013ab8000030b8008880400009014a0024
:10056000040033000000400081804800020149007f
:100570008b05e900c909dd0083017000010032002c
:1005800013002000c814de004814dd004709de0017
:100590001200b200c808de00088470008600070060
:1005a00001f0a1000cf0a70001f0a0007b003700d3
:1005b0006120e1007d0032000801be000200be00a3
:1005c000f7ff37006150e100fcff3a007700370089
:1005d00003f0a200889fbe008a9fbe008c1f780097
:1005e0005d000700640033006450e1004f003200fa
:1005f0006420e1005200320003826c0007003b00df
:100600000905d0000306d000820f54000c065d00df
:1006100002003900020032008901780003067800e8
:100620008582550004003d000003fd008103fd00ac
:100630008502ea008b854200840f720002003b00b5
:1006400060001000e08018006011b8000005eb00a9
:100650007a28e1000a00390006007800c75ddd0055
:10066000f707b200878075002d0037008281710086
:100670000a017800610560008180d1000080d3000c
:100680008502e900f9ff3b0006044000878448002a
:1006900002003b0060041400e0841c000988a300f1
:1006a000070032008a81710082817100610164005b
:1006b0008904d1000884d3008b05e80017003700b7
:1006c0000978a30013003a000b00e0001300340087
:1006d0008b05e9000804440089844c000a44740036
:1006e0000978a3000d003a000b00e0000700340079
:1006f0008b05e9000804440089844c0001003a009d
:100700000b0020000978a300f7ff32000001eb0086
:1007100002003700828171000a017800260007007c
:100720000cf0a70001f0a0001c0037006420e100dd
:1007300002003a00838f6c001c0033000801be00e9
:100740000200be0015003700f4ff2f004000370004
:10075000140020003e0037000004be0057000700d0
:100760000003be000405be000200be0053000700e7
:10077000844f7500000006000200be006450e100d6
:10078000050036006420e100020036000968a3007d
:1007900001003a000800be000160a0004f0678008a
:1007a0004f05be004f04be0000000600f0ff2f0002
:1007b000f1ff2700f9ff370081002000618055001c
:1007c0000b003d000b00200061fe2f000100e10046
:1007d0001d00340082817100610164008904d10030
:1007e0000884d3000000e800faff3a0071002000fe
:1007f0006100640003007000020060000900320024
:1008000061044400e0844c000988a5000500320022
:100810008b05e8006808e10002003a008904d10075
:100820000884d300f20f20000258e10005003d00cb
:10083000c75ddd00f907b200898075000800780007
:10084000000006000bf827008b0078000000050070
:10085000889fbe008a9fbe00841f7800beff0700ed
:100860004f00780011003300f0ff2f00838f6c00e1
:1008700006003b00040565000a00a70008003700d9
:1008800009f0a6001000200008003700820f540075
:10089000838f5c00030039001000200001003e003f
:1008a0000000200009f0a7000000ea004f05be008c
:1008b0004f04be000000e00000000600c70ade0092
:1008c000f107b200f50fb20008003200e1cf42009c
:1008d000020032000170a00024000500810f7000aa
:1008e000010032000408050044000500810f70007b
:1008f00002003a00140005008502e90000004000f3
:1009000081c04800fcff3b000170a00024000500ee
:100910000600fa00000f7800110798000000eb00b5
:1009200020079800ae0090001e009000808f5000bd
:100930000f003d002e0090001e0040001080fb00c4
:10094000a0118800901180000110200001006000bb
:100950000000e00002003a0000000000f9ff37004c
:100960002e0090000000e80020079800edff3700ff
:100970000080fa00000006000600fa00000f780070
:10098000110798000000eb0020079800ae009000cf
:100990001e009000808f50000f003d002e00900040
:1009a0001e0040001080fb00201188001011800004
:1009b00001102000010060000000e00002003a0089
:1009c00000000000f9ff37002e0090000000e80052
:1009d00020079800edff37000080fa0000000600b5
:1009e0003600f800809fbe00829fbe00849fbe003c
:1009f000869fbe000000fa0089e0a90060528000d6
:100a00000000e80060528800805280000000e8008a
:100a10008052880081528000703e2000808f5000fc
:100a2000100036000000eb0080528800d7c2bf00e3
:100a30000080fb004300de000080fb0061006000de
:100a40000080ea00614060004301dd00712d20005c
:100a50009140780070cfb30000c060000240700089
:100a6000d7e2b70060528000420620001100090062
:100a70000280d8008000fd00e10f500002003a0023
:100a800010c0b3007de9b70061528000f09f2f00d5
:100a9000808f5000050036000000eb006052880097
:100aa000004c80000000e800004c8800004c8000f2
:100ab000fd0f500006003400e2c2a900803e200075
:100ac0004e040700e2c2a8000000eb00004c8800c2
:100ad0000080fa004f03be004f02be004f01be006f
:100ae0004f00be003600f90000400600809fbe00a7
:100af0001600fa008560a9000000eb00100f9800b6
:100b00000040eb004057980030118000004f780003
:100b10004e5090000080fb008e00400050c4b30097
:100b2000914f1000210032004e5090000040e8002c
:100b30004057980010118000610060000000e00044
:100b400008003a009e089000f0342c00808f50007e
:100b500004003e001e0890000000e800100f9800fe
:100b6000f4ff37009e089000f0342c00808f500076
:100b7000060036004e5090000080fb008e004000c2
:100b800050c4b30080487800050037004e509000f4
:100b90000080fb008e00400030118000804878000b
:100ba0000000eb00100f9800d9ff37004e50900066
:100bb000f04f500013003a002e409000e34f5000d9
:100bc00010003a003e409000e44f50000d003a0003
:100bd00030c5b3009e4f10000a003a000000eb0041
:100be000004c880020c6b3004aeab70010c0b3002a
:100bf0007ce9b70010c0b3004feab7000000eb007b
:100c0000605288000080fa004f00be0000400600dd
:100c1000809fbe004000fa000000eb00000f78004b
:100c20000040eb002047980087c0a900b011800069
:100c300030479800520ae2000a003a00be40900095
:100c400030c5b30080cf500006003a0010002000ed
:100c50009052880064004700be4090000148780030
:100c6000bc003700520ae20007003a00be40900084
:100c700030c4b30080cf500003003a0030002000a1
:100c800090528800b300370090528000e10f50006e
:100c900045003a00e40047002e4090000080fb0031
:100ca0008100400050c4b300914f10002a00320070
:100cb0002e4090000004e00008003a0010c0b3008d
:100cc00020479800e40047002e4090000080fb0081
:100cd00001004000be409000014878002e40900086
:100ce0000040e800204798009011800061006000fb
:100cf0000000e00005003a00f0342c009e0f1000c8
:100d000002003e001e0fe800f7ff3700f0342c0011
:100d10009e0f100007003600e40047002e409000b0
:100d20000080fb008100400050c4b3008048780080
:100d300006003700e40047002e4090000080fb00d2
:100d400081004000b0118000804878000000eb0076
:100d5000000f7800cfff37000000eb0090528800b2
:100d60002e409000f04f50007a003a006400470097
:100d700020409000e14f500076003a0064004700a8
:100d800030409000e24f500072003a0010c0b300b3
:100d90007ce9b70010c0b3004eeab70020c6b3002c
:100da0004aeab7006b003700520ae2000a003a0034
:100db000be40900050c3b30080cf500006003a0000
:100dc000200020009052880064004700be40900040
:100dd000014878005f00370090528000e20f500019
:100de0004b003a00e40047002e4090000080fb00da
:100df0008100400050c3b300914f100003003a003f
:100e00002e4090000004e0002a003a002e4090009e
:100e10000004e00008003a0010c0b300204798002a
:100e2000e40047002e4090000080fb0001004000dd
:100e3000be409000014878002e4090000040e8003d
:100e40002047980090118000610060000000e000e1
:100e500005003a00f0342c009e0f100002003e0006
:100e60001e0fe800f7ff3700f0342c009e0f100033
:100e700007003600e40047002e4090000080fb0091
:100e80008100400050c3b30080487800060037005e
:100e9000e40047002e4090000080fb0081004000ed
:100ea000b0118000804878000000eb00000f78004f
:100eb000ccff37000000eb0090528800ae4090005d
:100ec00010c3b30080cf500022003a0064004700f6
:100ed000f040900010c3b30080cf50001d003a00d6
:100ee00064004700a048900020c3b30080cf5000aa
:100ef00018003a0010c0b3007ce9b70010c0b3007e
:100f00004eeab70010c6b3004aeab7001100370036
:100f100090528000e30f50000e003a000000eb00fa
:100f200090528800be40900010c5b30080cf5000a2
:100f300008003a0097c0a90097e0a9009560a900b1
:100f40009580a90099e0a9009860a9000c24a90047
:100f5000ffff37000080fa004f00be00004006008f
:100f60002800fa00881f78000000eb005007980066
:100f70007a004700012c29002017980031179800ab
:100f80002e109000be109000060009003158780025
:100f90000060fe0000202200103a8800c701070010
:100fa00080382100150307000302070055010700e0
:100fb000690107009201070061030700cda2a900a3
:100fc000d202a900dec2a900cdc2a900d362a90045
:100fd000e2c2a800d1a2a800d762a800d602a90048
:100fe000d1c2a9000060fe000060fe007d49e20061
:100ff000680032000000eb00000f78003200200093
:101000009e0f110061003c001e007800ac0207003a
:101010000004e000080035009e109000f00420005d
:10102000808f500004003e001e1090000000e80079
:1010300010179800f4ff37001e007800b302070075
:1010400020032000ed02070040c4b300bc010700ec
:10105000760447000040eb00b901070020449800e7
:10106000760447000040eb00b501070010449800eb
:10107000760447000040eb00b1010700004c780007
:101080000040eb00ae0107007ae9b7007a49e200c0
:10109000370035007ac9bf00634060007ae9b700c5
:1010a0009e0078007ac9bf000081fb00400020004c
:1010b0000008b80080004100400020000008b8008f
:1010c00022802000820040007600470020409000ef
:1010d000804878009e0078007ac9bf000081fb003c
:1010e000400020000008b8008000410040002000bf
:1010f0000008b8000280200082004000760047000f
:1011000010409000904098009e0078007ac9bf007f
:101110000081fb00400020000008b8008000410072
:10112000400020000008b80002802000820040003b
:1011300076004700904878009e0078007ac9bf008a
:101140000081fb00400020000008b8008000410042
:10115000400020000008b8002280200082004000eb
:101160000040eb00904098000000eb0060528800c7
:101170001e00780083020700200320009f02070062
:101180000060fe001e0fe8009cff37000040eb00ef
:101190007de9b7007c49e20093ff32000040eb009c
:1011a00020579800f30047006e00470012c0b300bc
:1011b000e1030700804078002e509000014040007d
:1011c00020579800f3004700700047000041eb00f3
:1011d000d9030700804078002e5090000140400065
:1011e000205798002e5090000004e00002003200ca
:1011f000d3020700020037000040eb0020579800a0
:1012000030c5b30082e9b70010c0b30083e9b7006e
:1012100020c0b30084e9b70030c0b30085e9b7004f
:1012200040c0b30086e9b70050c0b30087e9b700fb
:1012300060c0b30088e9b7007ec9bf0089e9b70084
:1012400080002000500798000000eb001007980075
:101250001e009000e30f500046003c005e0090002e
:1012600021982000010040002e41900002487800a3
:101270005e0090000000e800500798000000eb00be
:10128000400798004e009000e30f500035003c00ee
:101290005e00900021982000810140009e00900097
:1012a000400020000008b8004e019000820040007d
:1012b000400020000008b80022802000020040000a
:1012c000904978005e0090000000e8005007980008
:1012d0005e00900021982000810140009e00900057
:1012e000400020000008b8004e019000820040003d
:1012f000400020000008b8000280200002004000ea
:1013000010409000804978005e0090000000e800e6
:10131000500798005e009000219820008101400055
:101320009e009000400020000008b8004e01900090
:1013300082004000400020000008b8000280200029
:1013400002004000904978005e0090000000e80034
:10135000500798004e0090000000e80040079800f9
:10136000c8ff37001e0090000000e800100798003a
:10137000b7ff37005e0090002298200082004000f6
:101380000040eb00804878005e0090000000e8001c
:10139000500798005e0090002298200082004000d4
:1013a0000040eb00804878005e0090000000e800fc
:1013b000500798005e0090002298200082004000b4
:1013c0007e0090004800de00804878005e009000bb
:1013d0000000e800500798005e009000219820006f
:1013e000010040006e499000024878005e009000c5
:1013f0000000e800500798005e009000229820004e
:10140000820040000e0890004800de00804878000e
:101410005e0090000000e800500798005e00900019
:1014200021982000010040000e51900002487800f1
:101430005e0090000000e800500798005e009000f9
:10144000229820008200400050c4b30080487800f9
:101450005e0090000000e80050079800e0a4200023
:1014600011c0b30090cf100003003a00de009000de
:101470002098200026fd0700f0a4200012c0b30031
:10148000904f110003003a00de00900020982000e9
:1014900039fd0700d6c2bf000080fb00610060007c
:1014a0000080ea0061416000612d200091407800d9
:1014b000e0cfb30000c0600002407000d6e2b70089
:1014c000d1c2bf000080fb004600de000080fb00b0
:1014d000610060000080ea00614060004601dd00bc
:1014e000112d200091407800f0cbb30000c06000c7
:1014f00002407000d1e2b7000040eb007ce9b70089
:10150000b9fe37000000fa002de1a900c112200049
:1015100091407800f0ccb30000c060000044a0000f
:101520002ce1b7002c21a900409c20004009880034
:101530000000eb0010098800d105800000002700a2
:1015400000807000d005880089e0a90099e0a8001b
:101550000080fa00000006000000fa000000eb0026
:10156000100988002de1a8000080fa0000000600a4
:101570000000fa002de1a9000080fa00000006003a
:101580000000fa0011e1a9000000eb00300888001b
:10159000e0ff2f00600888000111200091407800d2
:1015a000f0ccb30000c060000044a00010e1b70020
:1015b0001021a90010c1a9000080fa000000060057
:1015c0000000fa000000eb00300888000111200044
:1015d00091407800f0ccb30000c060000044a0004f
:1015e00010e1b70011e1a8000080fa000000060039
:1015f0000000fa0011e1a9000080fa0000000600d6
:101600000000fa00de82a800dea2a90087c0a900bf
:1016100000082000c01188003002a900012320002a
:101620009140780090cfb30000c0600030e2b70076
:1016300030a2a90033a2a90033e2a90032c2bf0040
:10164000f043b20032e2b70031e2a8003342a80012
:1016500097c0a80097e0a90087c0a900de42a800b3
:10166000de62a9008560a900000820004011880002
:101670002002a900012220009140780090cfb30001
:1016800000c0600020e2b70020a2a90023a2a900a8
:1016900023e2a90022c2bf00f043b20022e2b70059
:1016a00021e2a8002342a8009560a8009580a90027
:1016b0008560a9000080fa00000006000000fa0022
:1016c000e4c2a900e4e2a800e502a900e5e2a9005d
:1016d000cc22a900d2a2a900d282a9008820a90008
:1016e0009820a90060c2a90021262000914078001e
:1016f000c0cfb30000c0600062e2b70062c2bf00aa
:10170000c041b30062e2b7006382a9006362a9002e
:101710006342a9006322a8006302a90062c2a80074
:1017200062a2a80061e2a800e9e2a800d022a80015
:10173000d6a2a800d682a8000080fa000000060009
:101740000200fa00004f78000040eb0010479800bc
:101750000000000060c2bf000080fb000000d1005c
:101760000080fb00610060000000e0000200320029
:1017700000000000f7ff37001e80fb0040138800c8
:101780000000000060c2bf000080fb00610060003c
:101790000000e00002003a0000000000f9ff3700fe
:1017a00040138000104798001e4090000080fb000e
:1017b0000080fa00000006000200fa000000eb00c2
:1017c000000f7800300020009e0f100010003c0039
:1017d0001e007800cd00070040062000070107002a
:1017e00010c0b300d6ff070070c0b300d4ff0700dd
:1017f00080c0b300d2ff07001e007800e1000700a0
:1018000040062000fd0007001e0fe800edff370036
:101810000000eb00000f7800300020009e0f100049
:1018200010003c001e007800b800070040062000b1
:10183000f200070020c0b300c1ff070010c0b300d2
:10184000bfff070000c4b300bdff07001e00780003
:10185000cc00070040062000e80007001e0fe8004b
:10186000edff37000000eb00000f78003000200093
:101870009e0f100010003c001e007800a30007001f
:1018800040062000dd00070000c1b300acff0700e8
:1018900000c8b300aaff070060c1b300a8ff07009b
:1018a0001e007800b700070040062000d3000700a4
:1018b0001e0fe800edff37000000eb00000f78007e
:1018c000300020009e0f100010003c001e00780029
:1018d0008e00070040062000c800070010c1b300ba
:1018e00097ff070000c8b30095ff070060c3b3006f
:1018f00093ff07001e007800a200070040062000aa
:10190000be0007001e0fe800edff37000000eb00ef
:10191000000f7800300020009e0f100010003c00e7
:101920001e0078007900070040062000b300070081
:1019300020c1b30082ff070000c8b30080ff07008a
:1019400060c5b3007eff07001e0078008d00070011
:1019500040062000a90007001e0fe800edff370039
:101960000000eb00000f7800300020009e0f1000f8
:1019700010003c001e0078006400070040062000b4
:101980009e00070030c1b3006dff070000c8b30020
:101990006bff070060c7b30069ff07001e007800f7
:1019a0007800070040062000940007001e0fe800a2
:1019b000edff37000000eb00000f78003000200042
:1019c0009e0f100010003c001e0078004f00070022
:1019d000400620008900070000c2b30058ff07003e
:1019e00000c1b30056ff07000040eb0054ff0700a2
:1019f0001e00780063000700400620007f000700fb
:101a00001e0fe800edff37000000eb00000f78002c
:101a1000300020009e0f100010003c001e007800d7
:101a20003a000700400620007400070080c2b3009f
:101a300043ff0700e0c0b30041ff070030c1b3001f
:101a40003fff07001e0078004e0007004006200000
:101a50006a0007001e0fe800edff37000000eb00f2
:101a6000000f7800300020009e0f100012003c0094
:101a70001e00780025000700400620005f000700d8
:101a800080c3b3002eff070050c5b3002cff070032
:101a900050c5b3002aff070050c5b30028ff070058
:101aa0001e007800370007004006200053000700a2
:101ab0001e0fe800ebff37000080fa000000060070
:101ac0000400fa00000f78001e0078000f000700e5
:101ad000200320004900070000c4b30018ff0700de
:101ae0000040eb0016ff0700204798001e0078001a
:101af0002400070020032000400007002e40900033
:101b00000080fb000080fa00000006000400fa00dc
:101b1000000f78001e007800100798001e0090004b
:101b2000e10f5000100032001e009000e10f500045
:101b300004003c001e0090000000e000080032009d
:101b40000e0037001e009000e20f50000800320027
:101b50001e009000e30f500007003200070037001e
:101b6000e9e2a90005003700d022a90003003700f0
:101b7000d6a2a90001003700d682a9000080fa0091
:101b8000000006000400fa00000f78001e00780034
:101b9000100798001e009000e10f50001000320066
:101ba0001e009000e10f500004003c001e00900059
:101bb0000000e000080032000e0037001e00900018
:101bc000e20f5000080032001e009000e30f5000aa
:101bd0000700320007003700e9e2a80005003700df
:101be000d022a80003003700d6a2a80001003700c9
:101bf000d682a8000080fa00000006000600fa0065
:101c0000000f78000000eb00100798009e00900085
:101c100010032000808f50000e003e000000eb00fb
:101c2000200798002e0090009e0f50000500310004
:101c3000000000002e0090000000e800200798003f
:101c4000f8ff37001e0090000000e8001007980021
:101c5000eeff37000080fa00000006000000fa00e6
:101c6000e462a900e442a900e662a800e642a900f5
:101c70000000000000000000000000000000000064
:101c80000000000000000000e642a8000000000084
:101c90000000000000000000000000000000000044
:101ca00000000000e662a900000000000000000043
:101cb0000000000000000000000000000000000024
:101cc000e642a90000000000000000000000000043
:101cd0000000000000000000000000000000000004
:101ce00000000000e642a800000000000000000024
:101cf00000000000000000000000000000000000e4
:101d0000e662a800000000000000000000000000e3
:101d1000000000000000000000000000e642a900f2
:101d200000000000000000000000000000000000b3
:101d300000000000000000000080fa000000060023
:101d40000200fa00e462a900e442a900e662a800e9
:101d5000e642a900000000000000000000000000b2
:101d60000000000000000000000000000040eb0048
:101d7000004f780080c0b3009e4f10000e003e0060
:101d8000e642a80000000000000000000000000083
:101d90000000000000000000e642a9000000000072
:101da0000000000000000000000000000000000033
:101db0001e4fe800efff3700a8ff07000080fa0081
:101dc000000006000400fa00004f78000040eb001d
:101dd00020479800e462a900e442a9000000000046
:101de00000000000000000000000000000000000f3
:101df00000c8b300104798001e4090000004e000a7
:101e00001b0032001e4090001e4060000004e000f5
:101e100002003200e662a80001003700e662a90075
:101e200000000000000000000000000000000000b2
:101e300000000000000000000000000000000000a2
:101e4000e642a800000000000000000000000000c2
:101e50000000000000000000e642a9001e409000c3
:101e60000080fb000000d10010479800e2ff37001f
:101e7000e662a800e462a800000000000000000084
:101e8000000000000000000000000000e642a80082
:101e90000000000000000000000000000000000042
:101ea00000000000e6c2bf000080fb004300de002f
:101eb0000080fb006100600020479800e642a90016
:101ec0000000000000000000000000000000000012
:101ed000000000002e4090000000fb000080fa008f
:101ee000000006000600fa00004f78000040eb00fa
:101ef00020479800e462a900e442a900e662a80035
:101f0000e462a800000000000000000000000000e3
:101f1000000000000000000000c8b3001047980057
:101f20001e4090000004e0001c0032000000000091
:101f300000000000000000000000000000000000a1
:101f4000e642a800000000000000000000000000c1
:101f50000000000000000000e6c2bf000080fb009f
:101f60004300de000080fb00610060000000e00034
:101f7000040032002e4090009e409000014070000e
:101f800020479800e642a9001e4090000080fb0018
:101f90000000d10010479800e1ff3700e462a9007b
:101fa0000000000000000000000000000000000031
:101fb000000000000000eb00200798001e04e00075
:101fc00002003a001100200021079800ce40900046
:101fd00061c060004301dd00612e20009140780067
:101fe00070cfb30000c0600002407000e6e2b700ae
:101ff000e642a80000000000000000000000000011
:1020000000000000000000000000000000000000d0
:1020100000000000e642a900e662a80000000000ff
:1020200000000000000000000000000000000000b0
:102030002e4090000000fb000080fa000000060027
:102040000200fa000040eb00004f7800e462a900b3
:10205000e442a900000000000000000000000000b1
:10206000000000000000000035ff0700e0c1b300e1
:1020700054ff07001e4f40001e00fb000080fa00c6
:10208000000006000600fa00881f7800000f7800a4
:10209000110798000040eb0040479800effe070052
:1020a00070c0b30047ff0700404798001e04780047
:1020b00010c0b3008bff0700004c78001e04900096
:1020c0000040eb0087ff0700004c78004e40900076
:1020d0000000fb004f0478000080fa0000000600ba
:1020e0000400fa00000f78000040eb002047980041
:1020f000dafe070060c0b30032ff070080407800be
:102100002e40900001404000204798001e007800bb
:10211000104078002bff0700804078002e40900090
:1021200001404000204798002e4090000000fb0036
:102130000080fa00000006000e00fa00881f7800f8
:10214000000f780011079800424798000000eb004c
:1021500040079800c1fe07004e4090000080fb0041
:10216000600798006e0090000000e000040032005c
:102170006e009000e10f5000080032000d003700a3
:1021800030c0b3000fff07008000fb004e0090003e
:1021900001004000400798000600370050c0b3001f
:1021a00008ff07008000fb004e0090000100400087
:1021b000400798000000eb00500798005e00900078
:1021c000e40f400056003e00000000000000000048
:1021d00000000000000000000000000000000000ff
:1021e00000000000000000000000000000000000ef
:1021f00000000000000000000000000000000000df
:1022000000000000000000000000000000000000ce
:1022100000000000000000000000000000000000be
:1022200000000000000000000000000000000000ae
:10223000000000000000000000000000000000009e
:10224000000000000000000000000000000000008e
:10225000000000000000000000000000000000007e
:10226000000000000000000000000000000000006e
:10227000000000000000000000000000000000005e
:10228000000000000000000000000000000000004e
:10229000000000000000000000000000000000003e
:1022a000000000000000000000000000000000002e
:1022b000000000000000000000000000000000001e
:1022c000000000000000000000000000000000000e
:1022d00000000000000000000000000000000000fe
:1022e00000000000000000000000000000000000ee
:1022f00000000000e6c2bf000080fb004300de00db
:102300000080fb00610060000000e000040032007b
:102310005e0090000000e80050079800a7ff37001b
:10232000e6c2bf000080fb004300de000080fb002f
:10233000610060000000e000030032004e009000e9
:102340000000e800400798001e04e80010c0b30039
:10235000e4fe0700004c780010c0b300e1fe070067
:10236000504798001e04780010c0b300ddfe07003f
:10237000004c780010c0b300dafe070060479800f8
:102380001e0490000040eb00d6fe0700004c7800d1
:102390000e4890000000fb004f0478000080fa0017
:1023a000000006002c00fa00889fbe00000f780095
:1023b000110798000000200001082c002007980059
:1023c0003107980040352e0051d223004007980075
:1023d00051079800207a2e00b1632b006007980007
:1023e00071079800a0702d0031c22300000f9800e3
:1023f000110f9800c05a2c00718a2300200f9800fa
:10240000310f98001e0078001001be00420f9800a6
:10241000530f98001e0090001001be00620f98003c
:10242000730f9800a2702d0033c223006e08900035
:10243000fe08900032f8070002002000032224006a
:1024400063f8070040179800511798004e09900054
:10245000de0990006e009000fe00900028f8070052
:102460004e099000de09900025f807000004be0028
:102470004e099000de0990004e009000de009000b2
:102480001ff807000001be000800be0051f8070059
:102490002e019000be0190004ef807000017980032
:1024a0001117980002002000831c24004e10900099
:1024b000de10900046f807000004be004e099000b0
:1024c000de0990002e089000be0890000cf807006e
:1024d0000e0990009e0990003ef807000001be0022
:1024e0000800be0006f807000e1190009e11900033
:1024f00038f80700201798003117980002002000d4
:10250000832c24002e109000be1090008ef807003f
:102510000000e0000400340000002000812c2400b2
:102520002017980031179800d2cc2c00c3dc230070
:102530002e109000be10900085f807000000e0000b
:1025400004003d00d0cc2c00c1dc230020179800f3
:10255000311798001e0090004e119000de1190007f
:102560000288be001e0078002e119000be1190005f
:102570000288be004f04be000080fa000000060082
:020000040000fa
:0200000401f009
:04000000cf0000002d
:020000040000fa
:0200000401f009
:04000400cf00000029
:020000040000fa
:0200000401f009
:0400080007000000ed
:020000040000fa
:0200000401f009
:04000c00a20000004e
:020000040000fa
:0200000401f009
:0400100046000000a6
:020000040000fa
:0200000401f009
:04001400df00000009
:020000040000fa
:0200000401f009
:04001800e7000000fd
:020000040000fa
:1000080068130000681300006813000068130000fc
:1000180068130000681300006813000068130000ec
:1000280068130000681300006813000068130000dc
:1000380068130000681300006813000068130000cc
:1000480068130000681300006813000076050000bc
:1000580068130000681300006813000068130000ac
:10006800681300006813000068130000681300009c
:10007800681300006813000068130000681300008c
:10008800681300006813000068130000681300007c
:1000980068130000681300000806000068130000d9
:1000a800681300006813000068130000681300005c
:1000b800681300006813000068130000681300004c
:1000c800681300006813000068130000681300003c
:1000d800681300006813000068130000f0040000b3
:1000e800681300006813000068130000681300001c
:1000f800681300006813000068130000681300000c
:1001080068130000681300006813000068130000fb
:1001180068130000681300006813000068130000eb
:1001280068130000681300006813000068130000db
:1001380068130000681300006813000068130000cb
:1001480068130000681300006813000068130000bb
:1001580068130000681300006813000068130000ab
:10016800681300006813000068130000681300009b
:10017800681300006813000068130000681300008b
:10018800681300006813000068130000681300007b
:10019800681300006813000068130000681300006b
:1001a800681300006813000068130000681300005b
:1001b800681300006813000068130000681300004b
:1001c800681300006813000068130000681300003b
:1001d800681300006813000068130000681300002b
:1001e800681300006813000068130000681300001b
:0801f800681300006813000009
:020000040000fa
:1002080068130000681300006813000068130000fa
:1002180068130000681300006813000068130000ea
:1002280068130000681300006813000068130000da
:1002380068130000681300006813000068130000ca
:1002480068130000681300006813000076050000ba
:1002580068130000681300006813000068130000aa
:10026800681300006813000068130000681300009a
:10027800681300006813000068130000681300008a
:10028800681300006813000068130000681300007a
:1002980068130000681300000806000068130000d7
:1002a800681300006813000068130000681300005a
:1002b800681300006813000068130000681300004a
:1002c800681300006813000068130000681300003a
:1002d800681300006813000068130000f0040000b1
:1002e800681300006813000068130000681300001a
:1002f800681300006813000068130000681300000a
:1003080068130000681300006813000068130000f9
:1003180068130000681300006813000068130000e9
:1003280068130000681300006813000068130000d9
:1003380068130000681300006813000068130000c9
:1003480068130000681300006813000068130000b9
:1003580068130000681300006813000068130000a9
:100368006813000068130000681300006813000099
:100378006813000068130000681300006813000089
:100388006813000068130000681300006813000079
:100398006813000068130000681300006813000069
:1003a8006813000068130000681300006813000059
:1003b8006813000068130000681300006813000049
:1003c8006813000068130000681300006813000039
:1003d8006813000068130000681300006813000029
:1003e8006813000068130000681300006813000019
:0803f800681300006813000007
:020000040000fa
:10258000555500005574000065730000740000008c
:020000040000fa
:102590007a090000da0000000200000000000000dc
:1025a00000110000000001000203040005060700fe
:1025b00008090a0000000000000000000000000000
:1025c000000000000000000000000000000000000b
:1025d00000000000000000000000000000000000fb
:1025e00000000000000000000000000000000000eb
:1025f00000000000000000000000000000000000db
:1026000000000000000000000000000000000000ca
:1026100000000000000000000000000000000000ba
:1026200000000000000000000000000000000000aa
:10263000000000000000000000000000000000009a
:10264000000000000000000000000000000000008a
:10265000000000000000000000000000000000007a
:10266000000000000000000000000000000000006a
:10267000000000000000000000000000000000005a
:10268000000000000000000000000000000000004a
:10269000000000000000000000000000000000003a
:1026a000000000000000000000000000000000002a
:1026b00000610000000000000000000000000000b9
:1026c000000800007a010000000000000000000087
:020000040000fa
:0426d0000000fe0008
:00000001FF
